{
  "_format": "hh-sol-artifact-1",
  "contractName": "PokemonFactory",
  "sourceName": "contracts/pokemonFactory.sol",
  "abi": [
    {
      "anonymous": false,
      "inputs": [
        {
          "components": [
            {
              "internalType": "uint256",
              "name": "id",
              "type": "uint256"
            },
            {
              "internalType": "string",
              "name": "name",
              "type": "string"
            }
          ],
          "indexed": false,
          "internalType": "struct PokemonFactory.Pokemon",
          "name": "newPokemon",
          "type": "tuple"
        }
      ],
      "name": "eventNewPokemon",
      "type": "event"
    },
    {
      "inputs": [
        {
          "internalType": "string",
          "name": "_name",
          "type": "string"
        },
        {
          "internalType": "uint256",
          "name": "_id",
          "type": "uint256"
        }
      ],
      "name": "createPokemon",
      "outputs": [],
      "stateMutability": "nonpayable",
      "type": "function"
    },
    {
      "inputs": [
        {
          "internalType": "string",
          "name": "_name",
          "type": "string"
        },
        {
          "internalType": "string",
          "name": "_description",
          "type": "string"
        }
      ],
      "name": "createSkill",
      "outputs": [],
      "stateMutability": "nonpayable",
      "type": "function"
    },
    {
      "inputs": [
        {
          "internalType": "string",
          "name": "_name",
          "type": "string"
        },
        {
          "internalType": "string",
          "name": "_description",
          "type": "string"
        }
      ],
      "name": "createType",
      "outputs": [],
      "stateMutability": "nonpayable",
      "type": "function"
    },
    {
      "inputs": [
        {
          "internalType": "string",
          "name": "_name",
          "type": "string"
        },
        {
          "internalType": "string",
          "name": "_description",
          "type": "string"
        }
      ],
      "name": "createWeaknesse",
      "outputs": [],
      "stateMutability": "nonpayable",
      "type": "function"
    },
    {
      "inputs": [],
      "name": "getAllPokemons",
      "outputs": [
        {
          "components": [
            {
              "internalType": "uint256",
              "name": "id",
              "type": "uint256"
            },
            {
              "internalType": "string",
              "name": "name",
              "type": "string"
            }
          ],
          "internalType": "struct PokemonFactory.Pokemon[]",
          "name": "",
          "type": "tuple[]"
        }
      ],
      "stateMutability": "view",
      "type": "function"
    },
    {
      "inputs": [],
      "name": "getResult",
      "outputs": [
        {
          "internalType": "uint256",
          "name": "product",
          "type": "uint256"
        },
        {
          "internalType": "uint256",
          "name": "sum",
          "type": "uint256"
        }
      ],
      "stateMutability": "pure",
      "type": "function"
    },
    {
      "inputs": [
        {
          "internalType": "uint256",
          "name": "",
          "type": "uint256"
        }
      ],
      "name": "pokemonToOwner",
      "outputs": [
        {
          "internalType": "address",
          "name": "",
          "type": "address"
        }
      ],
      "stateMutability": "view",
      "type": "function"
    }
  ],
  "bytecode": "0x608060405234801561001057600080fd5b5061106e806100206000396000f3fe608060405234801561001057600080fd5b506004361061007d5760003560e01c80635e9167901161005b5780635e916790146100ea5780637fcbc82414610108578063de29278914610124578063e85c80a8146101435761007d565b80630a3bd50b146100825780631a24febf1461009e5780632f7467b3146100ba575b600080fd5b61009c60048036038101906100979190610795565b61015f565b005b6100b860048036038101906100b391906107f1565b61033e565b005b6100d460048036038101906100cf9190610869565b6103b6565b6040516100e191906108d7565b60405180910390f35b6100f26103e9565b6040516100ff9190610a7f565b60405180910390f35b610122600480360381019061011d91906107f1565b6104e4565b005b61012c61055c565b60405161013a929190610ab0565b60405180910390f35b61015d600480360381019061015891906107f1565b61058d565b005b600081116101a2576040517f08c379a000000000000000000000000000000000000000000000000000000000815260040161019990610b5c565b60405180910390fd5b60028251116101e6576040517f08c379a00000000000000000000000000000000000000000000000000000000081526004016101dd90610bee565b60405180910390fd5b600060405180604001604052808381526020018481525090806001815401808255809150506001900390600052602060002090600202016000909190919091506000820151816000015560208201518160010190816102459190610e1a565b505050336004600083815260200190815260200160002060006101000a81548173ffffffffffffffffffffffffffffffffffffffff021916908373ffffffffffffffffffffffffffffffffffffffff160217905550600560003373ffffffffffffffffffffffffffffffffffffffff1673ffffffffffffffffffffffffffffffffffffffff16815260200190815260200160002060008154809291906102ea90610f1b565b91905055507f6527206c6a5a1fb0a39122dc18d677d712be011bed59d43146a4a80eb1e4e6806040518060400160405280838152602001848152506040516103329190610fa0565b60405180910390a15050565b60006040518060400160405280848152602001838152509050600281908060018154018082558091505060019003906000526020600020906002020160009091909190915060008201518160000190816103989190610e1a565b5060208201518160010190816103ae9190610e1a565b505050505050565b60046020528060005260406000206000915054906101000a900473ffffffffffffffffffffffffffffffffffffffff1681565b60606000805480602002602001604051908101604052809291908181526020016000905b828210156104db57838290600052602060002090600202016040518060400160405290816000820154815260200160018201805461044a90610c3d565b80601f016020809104026020016040519081016040528092919081815260200182805461047690610c3d565b80156104c35780601f10610498576101008083540402835291602001916104c3565b820191906000526020600020905b8154815290600101906020018083116104a657829003601f168201915b5050505050815250508152602001906001019061040d565b50505050905090565b600060405180604001604052808481526020018381525090506003819080600181540180825580915050600190039060005260206000209060020201600090919091909150600082015181600001908161053e9190610e1a565b5060208201518160010190816105549190610e1a565b505050505050565b60008060006001905060006002905080826105779190610fc2565b935080826105859190611004565b925050509091565b60006040518060400160405280848152602001838152509050600181908060018154018082558091505060019003906000526020600020906002020160009091909190915060008201518160000190816105e79190610e1a565b5060208201518160010190816105fd9190610e1a565b505050505050565b6000604051905090565b600080fd5b600080fd5b600080fd5b600080fd5b6000601f19601f8301169050919050565b7f4e487b7100000000000000000000000000000000000000000000000000000000600052604160045260246000fd5b61066c82610623565b810181811067ffffffffffffffff8211171561068b5761068a610634565b5b80604052505050565b600061069e610605565b90506106aa8282610663565b919050565b600067ffffffffffffffff8211156106ca576106c9610634565b5b6106d382610623565b9050602081019050919050565b82818337600083830152505050565b60006107026106fd846106af565b610694565b90508281526020810184848401111561071e5761071d61061e565b5b6107298482856106e0565b509392505050565b600082601f83011261074657610745610619565b5b81356107568482602086016106ef565b91505092915050565b6000819050919050565b6107728161075f565b811461077d57600080fd5b50565b60008135905061078f81610769565b92915050565b600080604083850312156107ac576107ab61060f565b5b600083013567ffffffffffffffff8111156107ca576107c9610614565b5b6107d685828601610731565b92505060206107e785828601610780565b9150509250929050565b600080604083850312156108085761080761060f565b5b600083013567ffffffffffffffff81111561082657610825610614565b5b61083285828601610731565b925050602083013567ffffffffffffffff81111561085357610852610614565b5b61085f85828601610731565b9150509250929050565b60006020828403121561087f5761087e61060f565b5b600061088d84828501610780565b91505092915050565b600073ffffffffffffffffffffffffffffffffffffffff82169050919050565b60006108c182610896565b9050919050565b6108d1816108b6565b82525050565b60006020820190506108ec60008301846108c8565b92915050565b600081519050919050565b600082825260208201905092915050565b6000819050602082019050919050565b6109278161075f565b82525050565b600081519050919050565b600082825260208201905092915050565b60005b8381101561096757808201518184015260208101905061094c565b60008484015250505050565b600061097e8261092d565b6109888185610938565b9350610998818560208601610949565b6109a181610623565b840191505092915050565b60006040830160008301516109c4600086018261091e565b50602083015184820360208601526109dc8282610973565b9150508091505092915050565b60006109f583836109ac565b905092915050565b6000602082019050919050565b6000610a15826108f2565b610a1f81856108fd565b935083602082028501610a318561090e565b8060005b85811015610a6d5784840389528151610a4e85826109e9565b9450610a59836109fd565b925060208a01995050600181019050610a35565b50829750879550505050505092915050565b60006020820190508181036000830152610a998184610a0a565b905092915050565b610aaa8161075f565b82525050565b6000604082019050610ac56000830185610aa1565b610ad26020830184610aa1565b9392505050565b600082825260208201905092915050565b7f456c20636f6469676f2064656c206e7565766f20706f6b656d6f6e2c2064656260008201527f6520736572206d61796f722061206365726f0000000000000000000000000000602082015250565b6000610b46603283610ad9565b9150610b5182610aea565b604082019050919050565b60006020820190508181036000830152610b7581610b39565b9050919050565b7f456c206e6f6d6272652064656c206e7565766f20706f6b656d6f6e2c2064656260008201527f652074656e657220616c206d656e6f7320332063617261637465726573000000602082015250565b6000610bd8603d83610ad9565b9150610be382610b7c565b604082019050919050565b60006020820190508181036000830152610c0781610bcb565b9050919050565b7f4e487b7100000000000000000000000000000000000000000000000000000000600052602260045260246000fd5b60006002820490506001821680610c5557607f821691505b602082108103610c6857610c67610c0e565b5b50919050565b60008190508160005260206000209050919050565b60006020601f8301049050919050565b600082821b905092915050565b600060088302610cd07fffffffffffffffffffffffffffffffffffffffffffffffffffffffffffffffff82610c93565b610cda8683610c93565b95508019841693508086168417925050509392505050565b6000819050919050565b6000610d17610d12610d0d8461075f565b610cf2565b61075f565b9050919050565b6000819050919050565b610d3183610cfc565b610d45610d3d82610d1e565b848454610ca0565b825550505050565b600090565b610d5a610d4d565b610d65818484610d28565b505050565b5b81811015610d8957610d7e600082610d52565b600181019050610d6b565b5050565b601f821115610dce57610d9f81610c6e565b610da884610c83565b81016020851015610db7578190505b610dcb610dc385610c83565b830182610d6a565b50505b505050565b600082821c905092915050565b6000610df160001984600802610dd3565b1980831691505092915050565b6000610e0a8383610de0565b9150826002028217905092915050565b610e238261092d565b67ffffffffffffffff811115610e3c57610e3b610634565b5b610e468254610c3d565b610e51828285610d8d565b600060209050601f831160018114610e845760008415610e72578287015190505b610e7c8582610dfe565b865550610ee4565b601f198416610e9286610c6e565b60005b82811015610eba57848901518255600182019150602085019450602081019050610e95565b86831015610ed75784890151610ed3601f891682610de0565b8355505b6001600288020188555050505b505050505050565b7f4e487b7100000000000000000000000000000000000000000000000000000000600052601160045260246000fd5b6000610f268261075f565b91507fffffffffffffffffffffffffffffffffffffffffffffffffffffffffffffffff8203610f5857610f57610eec565b5b600182019050919050565b6000604083016000830151610f7b600086018261091e565b5060208301518482036020860152610f938282610973565b9150508091505092915050565b60006020820190508181036000830152610fba8184610f63565b905092915050565b6000610fcd8261075f565b9150610fd88361075f565b9250828202610fe68161075f565b91508282048414831517610ffd57610ffc610eec565b5b5092915050565b600061100f8261075f565b915061101a8361075f565b925082820190508082111561103257611031610eec565b5b9291505056fea2646970667358221220e85050f47a8b811366958df6b31031c6247ade4942a01fc23cd0698f03c9432564736f6c63430008120033",
  "linkReferences": {},
  "deployedLinkReferences": {}
}